:100000000C9436000C945E000C945E000C945E0020
:100010000C945E000C945E000C945E000C945E00E8
:100020000C945E000C945E000C945E000C945E00D8
:100030000C945E000C945E000C945E000C945E00C8
:100040000C9447020C945E000C94B7020C9491023D
:100050000C945E000C945E000C945E000C945E00A8
:100060000C945E000C945E00E902560411241FBE3D
:10007000CFEFD8E0DEBFCDBF21E0A0E3B1E001C00B
:100080001D92A03EB207E1F711E0A0E0B1E0ECE282
:10009000FDE002C005900D92A033B107D9F710E042
:1000A000C5E3D0E004C02197FE010E949104C4334F
:1000B000D107C9F70E9422030C9489060C94000012
:1000C0000895AF92BF92CF92DF92EF92FF920F937B
:1000D0001F93CF93DF936C017B018B01040F151FDE
:1000E000EB015E01AE18BF08C017D10759F0699146
:1000F000D601ED91FC910190F081E02DC6010995AA
:10010000892B79F7C501DF91CF911F910F91FF9056
:10011000EF90DF90CF90BF90AF900895FC01538D8A
:10012000448D252F30E0842F90E0821B930B5417D1
:1001300010F0CF96089501970895FC01918D828D5E
:10014000981761F0A28DAE0FBF2FB11D5D968C91F7
:10015000928D9F5F9F73928F90E008958FEF9FEF36
:1001600008952FB7F8948091350190913601A091B0
:100170003701B09138012FBF809341019093420124
:10018000A0934301B093440189E391E00E949D0054
:1001900097FF26C02FB7F8948091350190913601D2
:1001A000A0913701B09138012FBF4091410150918A
:1001B00042016091430170914401841B950BA60B91
:1001C000B70B40913D0150913E0160913F0170910C
:1001D000400184179507A607B707B0F28FEF9FEF8E
:1001E0000895FC01918D828D981731F0828DE80F72
:1001F000F11D858D90E008958FEF9FEF0895FC012C
:10020000918D228D892F90E0805C9F4F821B9109F8
:100210008F739927089589E391E00E94FF0021E000
:10022000892B09F420E0822F089580E090E0892B4B
:1002300029F00E940B0181110C9400000895FC012B
:10024000A48DA80FB92FB11DA35ABF4F2C91848D37
:1002500090E001968F739927848FA689B7892C9394
:10026000A089B1898C91837080648C93938D848DE7
:10027000981306C00288F389E02D80818F7D8083EA
:100280000895EF92FF920F931F93CF93DF93EC01AA
:1002900081E0888F9B8D8C8D98131AC0E889F9892D
:1002A000808185FF15C09FB7F894EE89FF89608330
:1002B000E889F98980818370806480839FBF81E0B1
:1002C00090E0DF91CF911F910F91FF90EF900895F3
:1002D000F62E0B8D10E00F5F1F4F0F731127E02ECE
:1002E0008C8D8E110CC00FB607FCFACFE889F98906
:1002F000808185FFF5CFCE010E941F01F1CFEB8DEC
:10030000EC0FFD2FF11DE35AFF4FF0829FB7F894D9
:100310000B8FEA89FB8980818062CFCFCF93DF93F7
:10032000EC01888D8823B9F0AA89BB89E889F9890D
:100330008C9185FD03C0808186FD0DC00FB607FC42
:10034000F7CF8C9185FFF2CF808185FFEDCFCE0175
:100350000E941F01E9CFDF91CF910895CF93DF93E2
:10036000EC0188819981009711F00E943305198270
:1003700018821D821C821B821A82DF91CF91089500
:10038000FC0180819181009711F00C943305089550
:100390000F931F93CF93DF93EC018881998100978E
:1003A00059F02A813B812617370730F081E0DF9131
:1003B000CF911F910F9108958B016F5F7F4F0E9426
:1003C000BC05009759F0998388831B830A832C818D
:1003D0003D81232B59F7FC011082E8CF80E0E7CF65
:1003E000EF92FF920F931F93CF93DF938C017B01CA
:1003F000EB0109900020E9F72197C61BD70BBE013E
:100400000E94C801811109C0C801DF91CF911F91DD
:100410000F91FF90EF900C94AE01F801D583C48347
:10042000B70180819181DF91CF911F910F91FF9052
:10043000EF900C948206EF92FF920F931F93CF934D
:10044000DF936115710541F480E0DF91CF911F9139
:100450000F91FF90EF90089541155105B1F07B0188
:10046000EC010C811D81040F151FB8010E94C80109
:10047000882351F3288139818C819D81B701820FB6
:10048000931F0E9482061D830C8381E0DECF1F92A2
:100490000F920FB60F9211242F933F938F939F9338
:1004A000AF93BF938091350190913601A0913701B0
:1004B000B09138013091340123E0230F2D3758F5E6
:1004C0000196A11DB11D20933401809335019093B5
:1004D0003601A0933701B09338018091300190919B
:1004E0003101A0913201B09133010196A11DB11DDE
:1004F0008093300190933101A0933201B093330186
:10050000BF91AF919F918F913F912F910F900FBE0F
:100510000F901F90189526E8230F0296A11DB11D7C
:10052000D2CF1F920F920FB60F9211242F933F93A9
:100530004F935F936F937F938F939F93AF93BF93EB
:10054000EF93FF9389E391E00E941F01FF91EF91E8
:10055000BF91AF919F918F917F916F915F914F91DB
:100560003F912F910F900FBE0F901F9018951F92E3
:100570000F920FB60F9211242F938F939F93EF93A7
:10058000FF93E0914901F0914A018081E0914F0190
:10059000F091500182FD1BC09081809152018F5FCC
:1005A0008F7320915301821741F0E0915201F0E0E6
:1005B000E75CFE4F958F80935201FF91EF919F91E1
:1005C0008F912F910F900FBE0F901F9018958081E3
:1005D000F4CFE9E3F1E01382128288EE93E0A0E029
:1005E000B0E084839583A683B7838AE091E091830A
:1005F000808385EC90E09587848784EC90E09787F2
:10060000868780EC90E0918B808B81EC90E0938BDF
:10061000828B82EC90E0958B848B86EC90E0978BBC
:10062000868B118E128E138E148EE6EDF1E0118200
:10063000108213821282158214826FE271E0CF0160
:100640000C94F001CF93DF93CDB7DEB728970FB6A8
:10065000F894DEBF0FBECDBF789484B5826084BDB0
:1006600084B5816084BD85B5826085BD85B58160B6
:1006700085BD80916E00816080936E001092810034
:1006800080918100826080938100809181008160EF
:1006900080938100809180008160809380008091B0
:1006A000B10084608093B1008091B000816080933C
:1006B000B00080917A00846080937A0080917A0003
:1006C000826080937A0080917A00816080937A00C2
:1006D00080917A00806880937A001092C100E09146
:1006E0004901F0914A0182E08083E0914501F09157
:1006F00046011082E0914701F091480180E180833A
:1007000010925101E0914D01F0914E0186E08083FD
:10071000E0914B01F0914C01808180618083E091F8
:100720004B01F0914C01808188608083E0914B0106
:10073000F0914C01808180688083E0914B01F091C1
:100740004C0180818F7D808300E010E089E391E09F
:100750000E94FF00892B09F484C01A8219821C822E
:100760001B821E821D826FE271E0CE0101960E9403
:10077000F0010E94B10097FD0FC08A30910561F031
:100780008F83188641E050E0BE01695F7F4FCE0144
:1007900001960E941B02EDCF8091D6019091D70166
:1007A000009709F46CC069817A816115710509F4BB
:1007B00064C04091D8015091D9012D813E814217EA
:1007C000530708F45AC00E9482068D819E8190933F
:1007D000DB018093DA011E821D82CE0101960E9408
:1007E000C0011A8219821C821B821E821D8268E14E
:1007F00071E0CE0101960E94F0014091DA01509122
:10080000DB016091D6017091D701CE0101960E9463
:100810001B02811104C0CE0101960E94AE0141E08D
:1008200050E06BE271E0CE0101960E941B02811143
:1008300004C0CE0101960E94AE014D815E816981A6
:100840007A8189E391E00E94610042E050E06DE22C
:1008500071E089E391E00E946100CE0101960E945F
:10086000C0010115110509F471CF0E940B01882305
:1008700009F46CCF0E94000069CF0E943305898182
:100880009A819093D7018093D6018B819C8190931C
:10089000D9018093D8018D819E819093DB01809353
:1008A000DA011A8219821C821B8295CF86ED91E0B3
:1008B0000C94C0012F923F924F925F926F927F9261
:1008C0008F929F92AF92BF92CF92DF92EF92FF9260
:1008D0000F931F93CF93DF93CDB7DEB7CA1BDB0B0C
:1008E0000FB6F894DEBF0FBECDBF09942A883988B1
:1008F00048885F846E847D848C849B84AA84B984B8
:10090000C884DF80EE80FD800C811B81AA81B981C3
:10091000CE0FD11D0FB6F894DEBF0FBECDBFED01D7
:100920000895EE0FFF1F0590F491E02D09940F93A9
:100930001F93CF93DF938230910510F482E090E013
:10094000E091DE01F091DF0130E020E0B0E0A0E0D6
:10095000309799F42115310509F44AC0281B390B49
:1009600024303105D8F58A819B816115710589F1A3
:10097000FB0193838283FE0111C04081518102817A
:10098000138148175907E0F04817590799F4109751
:1009900061F012960C93129713961C933296CF0126
:1009A000DF91CF911F910F9108950093DE01109375
:1009B000DF01F4CF2115310551F04217530738F00C
:1009C000A901DB019A01BD01DF01F801C1CFEF01EF
:1009D000F9CF9093DF018093DE01CDCFFE01E20FCE
:1009E000F31F819391932250310939832883D7CF04
:1009F0002091DC013091DD01232B41F42091020193
:100A0000309103013093DD012093DC01209100013E
:100A1000309101012115310541F42DB73EB74091C8
:100A2000040150910501241B350BE091DC01F0918C
:100A3000DD01E217F307A0F42E1B3F0B281739073F
:100A400078F0AC014E5F5F4F2417350748F04E0F2A
:100A50005F1F5093DD014093DC01819391939FCF01
:100A6000F0E0E0E09CCFCF93DF930097E9F0FC014A
:100A7000329713821282A091DE01B091DF01ED0165
:100A800030E020E01097A1F420813181820F931F84
:100A90002091DC013091DD012817390709F061C090
:100AA000F093DD01E093DC01DF91CF910895EA013D
:100AB000CE17DF07E8F54A815B819E01411551059C
:100AC000B1F7E901FB83EA8349915991C40FD51F1E
:100AD000EC17FD0761F4808191810296840F951FC8
:100AE000E90199838883828193819B838A83F0E0E3
:100AF000E0E012968D919C9113970097B9F52D9196
:100B00003C911197CD010296820F931F2091DC0139
:100B10003091DD012817390739F6309751F51092D9
:100B2000DF011092DE01B093DD01A093DC01BCCFA8
:100B3000D383C28340815181840F951FC817D90781
:100B400061F44E5F5F4F88819981480F591F51832F
:100B500040838A819B81938382832115310509F02B
:100B6000B0CFF093DF01E093DE019ECFFD01DC0109
:100B7000C0CF13821282D7CFB0E0A0E0E2ECF5E064
:100B80000C945C048C01009751F4CB010E949704F3
:100B90008C01C801CDB7DEB7E0E10C947804FC010C
:100BA000E60FF71F9C0122503109E217F30708F402
:100BB0009DC0D901CD91DC911197C617D70798F048
:100BC000C530D10530F3CE0104978617970708F397
:100BD000C61BD70B2297C193D1936D937C93CF0102
:100BE0000E943305D6CF5B01AC1ABD0A4C018C0EB6
:100BF0009D1EA091DE01B091DF01512C412CF12C02
:100C0000E12C109731F58091DC019091DD01881580
:100C1000990509F05CC04616570608F058C0809147
:100C2000000190910101009741F48DB79EB740916A
:100C3000040150910501841B950BE817F90708F092
:100C400055C0F093DD01E093DC01F901718360830D
:100C5000A0CF8D919C91119712966C90129713963C
:100C60007C901397A815B90559F56C0142E0C40EA4
:100C7000D11CCA14DB0420F1AC014A195B09DA016A
:100C80001296159780F06282738251834083D90156
:100C90006D937C93E114F10471F0D7011396FC93EA
:100CA000EE93129776CF22968C0F9D1FF9019183B8
:100CB0008083F301EFCFF093DF01E093DE0169CF92
:100CC0004816590608F42C017D01D3019ACFCB01B7
:100CD0000E9497047C01009749F0AE01B8010E9480
:100CE0007906C8010E943305870153CF10E000E068
:100CF00050CFFB01DC0102C001900D9241505040E9
:100D0000D8F70895FB01DC0101900D920020E1F776
:100D1000089510E0C5E3D0E004C0FE010E949104F4
:0C0D20002196C633D107C9F7F894FFCF25
:100D2C000000E001800000000000410161008E0025
:100D3C008E01FF009D00F1004E69636520746F20E9
:100D4C006D65657420796F752C200021000D0A00EB
:00000001FF
