:100000000C945D000C940E030C94E7020C94850094
:100010000C9485000C9485000C9485000C9485004C
:100020000C9485000C9485000C9485000C9485003C
:100030000C9485000C9485000C9485000C9485002C
:100040000C949D020C9485000C946B020C94450258
:100050000C9485000C9485000C9485000C9485000C
:100060000C9485000C9485000000000024002700FB
:100070002A0000000000250028002B0004040404CE
:100080000404040402020202020203030303030342
:10009000010204081020408001020408102001021F
:1000A00004081020000000080002010000030407FB
:1000B0000000000000000000190411241FBECFEF53
:1000C000D8E0DEBFCDBF21E0A6E1B1E001C01D92C6
:1000D000AB3CB207E1F711E0A0E0B1E0ECE9F8E0F9
:1000E00002C005900D92A631B107D9F710E0CDE519
:1000F000D0E004C02197FE010E944604CC35D10710
:10010000C9F70E9435030C944C040C940000AF9284
:10011000BF92CF92DF92EF92FF920F931F93CF93F4
:10012000DF936C017B018B01040F151FEB015E0156
:10013000AE18BF08C017D10759F06991D601ED91EB
:10014000FC910190F081E02DC6010995892B79F78A
:10015000C501DF91CF911F910F91FF90EF90DF903C
:10016000CF90BF90AF900895FC01538D448D252F03
:1001700030E0842F90E0821B930B541710F0CF9641
:10018000089501970895FC01918D828D981761F073
:10019000A28DAE0FBF2FB11D5D968C91928D9F5F8A
:1001A0009F73928F90E008958FEF9FEF0895FC0169
:1001B000918D828D981731F0828DE80FF11D858D1C
:1001C00090E008958FEF9FEF0895FC01918D228DAF
:1001D000892F90E0805C9F4F821B91098F73992734
:1001E00008958BE291E00E94E50021E0892B09F45B
:1001F00020E0822F089580E090E0892B29F00E9472
:10020000F10081110C9400000895FC01A48DA80F49
:10021000B92FB11DA35ABF4F2C91848D90E0019648
:100220008F739927848FA689B7892C93A089B18968
:100230008C91837080648C93938D848D981306C009
:100240000288F389E02D80818F7D80830895EF926D
:10025000FF920F931F93CF93DF93EC0181E0888F80
:100260009B8D8C8D98131AC0E889F989808185FF50
:1002700015C09FB7F894EE89FF896083E889F989F2
:1002800080818370806480839FBF81E090E0DF91F4
:10029000CF911F910F91FF90EF900895F62E0B8D47
:1002A00010E00F5F1F4F0F731127E02E8C8D8E1102
:1002B0000CC00FB607FCFACFE889F989808185FF69
:1002C000F5CFCE010E940501F1CFEB8DEC0FFD2F94
:1002D000F11DE35AFF4FF0829FB7F8940B8FEA8924
:1002E000FB8980818062CFCFCF93DF93EC01888D33
:1002F0008823B9F0AA89BB89E889F9898C9185FDA1
:1003000003C0808186FD0DC00FB607FCF7CF8C912E
:1003100085FFF2CF808185FFEDCFCE010E940501E0
:10032000E9CFDF91CF91089590E0FC01EC55FF4FAC
:100330002491FC01E057FF4F3491FC01E458FF4F3A
:10034000E491EE23C9F0222339F0233001F1A8F41F
:10035000213019F1223029F1F0E0EE0FFF1FEE58A5
:10036000FF4FA591B4918FB7F894EC91611126C01D
:1003700030953E233C938FBF08952730A9F0283055
:10038000C9F0243049F7809180008F7D03C08091AF
:1003900080008F7780938000DFCF84B58F7784BD16
:1003A000DBCF84B58F7DFBCF8091B0008F778093BA
:1003B000B000D2CF8091B0008F7DF9CF3E2BDACF45
:1003C000CF93DF9390E0FC01E057FF4F24918458D6
:1003D0009F4FFC0184918823C9F090E0880F991FFA
:1003E000FC01E859FF4FA591B491FC01EE58FF4F75
:1003F000C591D49161110DC09FB7F8948C9120954F
:1004000082238C938881282328839FBFDF91CF91FB
:100410000895623051F49FB7F8943C91822F8095F3
:1004200083238C93E8812E2BEFCF8FB7F894EC9138
:100430002E2B2C938FBFEACF08952FB7F89480917D
:10044000230190912401A0912501B09126012FBF95
:1004500080931A0190931B01A0931C01B0931D017E
:1004600008952FB7F8948091230190912401A091D1
:100470002501B09126012FBF80931601909317019B
:10048000A0931801B093190108951F920F920FB60F
:100490000F9211242F933F934F935F936F937F930A
:1004A0008F939F93AF93BF93EF93FF938BE291E072
:1004B0000E940501FF91EF91BF91AF919F918F91A4
:1004C0007F916F915F914F913F912F910F900FBE50
:1004D0000F901F9018951F920F920FB60F92112434
:1004E0002F938F939F93EF93FF93E0913B01F091B4
:1004F0003C018081E0914101F091420182FD1BC0ED
:100500009081809144018F5F8F7320914501821704
:1005100041F0E0914401F0E0E55DFE4F958F80935E
:100520004401FF91EF919F918F912F910F900FBEFA
:100530000F901F9018958081F4CF1F920F920FB6E5
:100540000F9211242F933F938F939F93AF93BF9359
:100550008091230190912401A0912501B091260161
:100560003091220123E0230F2D3758F50196A11D6C
:10057000B11D209322018093230190932401A09325
:100580002501B093260180911E0190911F01A09139
:100590002001B09121010196A11DB11D80931E0182
:1005A00090931F01A0932001B0932101BF91AF91BF
:1005B0009F918F913F912F910F900FBE0F901F90A1
:1005C000189526E8230F0296A11DB11DD2CF1F92C8
:1005D0000F920FB60F9211242F933F934F935F9377
:1005E0006F937F938F939F93AF93BF93EF93FF93FB
:1005F000E0910201F09103010995FF91EF91BF9104
:10060000AF919F918F917F916F915F914F913F91AA
:100610002F910F900FBE0F901F9018951F920F9261
:100620000FB60F9211242F933F934F935F936F93C5
:100630007F938F939F93AF93BF93EF93FF93E0913B
:100640000001F09101010995FF91EF91BF91AF91E8
:100650009F918F917F916F915F914F913F912F91DA
:100660000F900FBE0F901F901895789484B58260FC
:1006700084BD84B5816084BD85B5826085BD85B546
:10068000816085BD80916E00816080936E001092C4
:10069000810080918100826080938100809181003F
:1006A00081608093810080918000816080938000D0
:1006B0008091B10084608093B1008091B00081602E
:1006C0008093B00080917A00846080937A0080915A
:1006D0007A00826080937A0080917A0081608093B2
:1006E0007A0080917A00806880937A001092C1002D
:1006F00061E08DE10E94E00161E08EE10E94E00195
:1007000061E08DE00E94E00161E08EE00E94E00186
:1007100061E08BE10E94E00161E08CE10E94E00178
:1007200062E08BE00E94E00162E08CE00E94E00168
:1007300060E084E20E94E00160E083E20E94E00168
:1007400061E086E20E94E00161E085E20E94E00152
:1007500060E088E10E94E00160E089E10E94E00140
:1007600061E08AE10E94E00161E08FE10E94E00126
:1007700061E080E20E94E00161E08AE10E94940170
:1007800061E08FE10E94940161E080E20E949401A7
:10079000609128018BE10E949401609127018CE116
:1007A0000E94940160E08DE10E94940160E08EE17E
:1007B0000E94940100E010E0C1E08BE291E00E9411
:1007C000E500181619065CF58091C801811127C053
:1007D0008BE291E00E94C30090912A019923D1F00D
:1007E00090912901E92FF0E0E753FE4F823251F05A
:1007F00080839F5F923018F0C0932901DECF9093E1
:100800002901DBCF108210922A0110922901C09396
:10081000C801D3CF823289F6C0932A01CECF011509
:10082000110559F20E94F100882339F20E9400005C
:10083000C4CFEBE2F1E01382128288EE93E0A0E0F5
:10084000B0E084839583A683B78388E091E09183A9
:10085000808385EC90E09587848784EC90E097878F
:10086000868780EC90E0918B808B81EC90E0938B7D
:10087000828B82EC90E0958B848B86EC90E0978B5A
:10088000868B118E128E138E148E0895EE0FFF1F1D
:0C0890000590F491E02D0994F894FFCF3E
:10089C001C021C020000000027018700B400740138
:0608AC00E500C300D700C7
:00000001FF
